:10400000601A0020D9B80200696900006D690000DB
:10401000A70A0A010041000004180FACA067A7011D
:104020000000000000000000000000000000000090
:10403000000000008C1B03000000000000000000D6
:104040000000000000000000FFFFFFFFFFFFFFFF78
:10405000FFFFFFFF007003000000000000000000F1
:10406000FFFFFFFFFFFFFFFF100000000000000048
:104070000000000000000000000000000000000040
:104080000000000000000000DC420020DC420020B4
:10409000601A00209C5B030098F1020000110020D0
:0C40A000DC100020000004000000000004
:10410000601A0020D9B80200696900006D690000DA
:1041100029B200007169000079690000D7B8020077
:10412000D7B80200D7B80200D7B80200D7B802004B
:104130007D690000D7B80200D7B80200D7B80200E6
:10414000AD850000C9800100656C0000097901009F
:1041500035810100D5800100ED800100CD80010096
:10416000D57B0000A97C0000999700009DCB000042
:10417000F0690000F0690000F0690000F0690000DB
:10418000F0690000CD7C0000F0690000F0690000DB
:10419000F0690000F0690000F0690000F0690000BB
:1041A000F0690000F0690000F06900003981010049
:1041B000D18001007583000079810100F069000061
:0841C00045680100F0690000F0
:1041C800F8B500BFF8BC08BC9E467047F8B500BFFC
:1041D800F8BC08BC9E46704710B5054C237833B927
:1041E800044B13B10448AFF300800123237010BDC2
:1041F800B01F0020000000004456030008B5034B20
:104208001BB103490348AFF3008008BD000000005C
:10421800B41F002044560300154B002B08BF134B56
:104228009D46A3F5803A00218B460F461348144A51
:10423800121A2AF09BFF0F4B002B00D098470E4B09
:10424800002B00D098470020002104000D000D48E5
:10425800002802D00C48AFF300802AF049FF200064
:10426800290008F0ADFE2AF02FFF00BF000008006B
:10427800601A00200000000000000000B01F0020AD
:10428800DC42002000000000000000002DE9F0479B
:10429800314E324D324C4FF0000985F8009009F04C
:1042A8008FFC96F800803746B8F1000F08D101203E
:1042B80002F0CAFB0623337084F80080BDE8F0875B
:1042C800284E96F800A0B046BAF1000F07D1012099
:1042D80002F0BAFB2C23337084F800A0EEE7224BDF
:1042E8001A7862B10120207083F8009002F09AFBDE
:1042F80040F6B8312846BDE8F04717F001BE48B986
:104308001A4B1B7833B90120207002F0AFFB4FF431
:104318002F71EFE7431EDBB2012B15D8237853B179
:10432800012002F0A3FB98F80030013B88F8003028
:10433800C8210A48DFE7022806D1012002F096FBCF
:104348003B78013B3B70F3E7012002F07DFB074A15
:10435800002323701370B1E7691A00202C3C002059
:10436800CE1F0020681A0020CD1F0020D11F00207A
:104378001FB50A4B1B78102B0CBF012300238DF8A7
:104388000F301023009300220DF10F0306210120A6
:104398000AF072FD05B05DF804FB00BFD41F0020D1
:1043A80008B5FFF7E5FF03490348BDE8084017F0E3
:1043B800A7BD00BFE0930400143C002038B5124D9F
:1043C800012029460BF0E4FD104901200BF0E0FD27
:1043D8000F4901200BF0DCFD07F0C0FE1AF0F0FCDD
:1043E80001F0CAFC01F0E4FC0A4B0B4801241C70E4
:1043F80017F07AFD204609490BF0CAFD29462046E8
:10440800BDE838400BF0C4BDB1F3020010F3020060
:1044180038F30200CD1F00202C3C002047F3020097
:10442800044B1B78102B4FF0020001D102F0FABAAE
:1044380002F00ABBD41F002030B585B001230093D9
:1044480000220DF10F03062105460AF066FD044619
:1044580098BB0A22062108200DF0E6FA20460DF046
:104468001FFB10200DF010FB102009F093FE0146F1
:104478000DF10F000DF02CFB082128460DF05CFA19
:10448800114B124A1B8800922146114A204608F017
:10449800DBFF104904200BF07BFD9DF80F200E4B2D
:1044A8006AB110220D491A7004200BF071FD0949F8
:1044B80004200BF06DFDFFF7B3FF05B030BDEF2210
:1044C8001A700749F0E700BF863F0020883F0020A8
:1044D8007A3F0020B1F30200D41F002098F10200B7
:1044E800A3F10200074B1B78102B09D1064B1B7850
:1044F800EF2B4FF0020001D102F094BA02F0A4BAF7
:10450800704700BFD31F0020D41F00202DE9F041C1
:104518003B4FDFF828813B493B4C3C4D01200026AE
:1045280088F800600BF034FD3A78394901200BF027
:104538002FFD2278374901200BF02AFD2A783649C9
:1045480001200BF025FD3B7827463BB3237873B950
:104558000123237040F6B831404617F0D1FC09F02A
:104568002FFB03284AD1BDE8F04101F0D1BB2B4F06
:104578003B782BB901233B704FF47A612848ECE76C
:10458800284901200BF004FDFFF718FF01232B70C9
:10459800254B3E70EF2226701A70E0E72D78002D2B
:1045A800DDD11E4C237833B11F4B10221A70FFF750
:1045B80099FF2570D3E73B78002BD0D01A4B1B49C5
:1045C800EF2404201C700BF0E3FC194B1A78102A16
:1045D8000BBF184918491C7010224FF0040018BF6F
:1045E8001A700BF0D5FC114904200BF0D1FCFFF731
:1045F80017FF00233B70FFF7BBFEB0E7BDE8F08173
:10460800CC1F00208BF20200D01F0020CF1F0020FB
:10461800A6F20200C1F20200D8F20200D21F002066
:1046280015450000FAF20200D31F0020B1F3020082
:10463800D41F0020A3F1020098F10200243C0020BE
:104648000149024817F05CBCE0930400143C0020C8
:104658001FB50446174901200BF09AFC16490120A2
:104668000BF096FC154901200BF092FC902C13D00E
:10467800912C03D1124904200BF08AFC0E49012029
:104688000BF086FC0B4901200BF082FC0D4817F05B
:104698002BFC002004B010BD0B4904200BF078FC63
:1046A8000223009300220DF10E03032101200AF0DA
:1046B80034FCE3E7B1F3020031F2020057F20200E2
:1046C8006DF202002C3C00207DF2020010B5114C66
:1046D800042021460BF05CFC0F4904200BF058FC29
:1046E8000E4904200BF054FC0D4904200BF050FC3B
:1046F8000C4904200BF04CFC214604200BF048FC2C
:10470800094B0A4801226421BDE810401A7017F0CD
:10471800F7BB00BFB1F3020010F30200E7F102009B
:104728001DF2020047F30200CD1F00202C3C0020A0
:1047380010B51449044601200BF02AFC1249012047
:104748000BF026FC114901200BF022FC902C10D113
:104758000F4901200BF01CFC0E4817F0C5FB0A4955
:1047680001200BF015FC07490120BDE810400BF0B3
:104778000FBC094901200BF00BFC084B01221A70F1
:10478800EAE700BFB1F3020031F20200AFF1020024
:10479800D4F102002C3C0020DFF10200D11F0020E0
:1047A800FFF74ABE09B9FFF747BE70470031034B10
:1047B800034818BF0121197017F096BBCC1F0020C1
:1047C800243C0020C37B10B504460BB1832010BDE8
:1047D800C37C012B0BD003D3022B0BD08120F6E72F
:1047E80007F04AFE48B9E37B002BEFD1F6E707F064
:1047F80053FEF7E707F060FEF4E70020E7E738B577
:10480800C37B002B437D14BF8325C325012B04469E
:1048180011D10368028A5988587909F0DDFE50B130
:1048280023685B88032B02D1E37B13B183252846D9
:1048380038BD8125FBE7637D002BF8D12368228AE8
:104848005988587909F0BFFE0028F0D023685B88A2
:10485800032BE9D0062B02D0002BE8D1E4E7204651
:10486800BDE83840FFF7AEBF704701207047012010
:104878007047012070477047B520704770477047F0
:1048880000207047002070470020704700207047C4
:1048980000207047002070470020704770470020B4
:1048A80070470120704701207047B52070470020ED
:1048B80070470020704700207047002070477047FD
:1048C80000207047B5207047704700207047704738
:1048D80081207047002070478420704770477047D8
:1048E80000207047034B1B681878012808BF022076
:1048F800704700BF783500207047002070470020BF
:104908007047002070470020704700207047002043
:10491800704700207047002070470020704770479C
:10492800B52070470020704700207047704700206E
:104938007047704770477047704700207047B52030
:1049480070477047704700207047704770470000F5
:10495800094A0023FF21137082F8783082F8653005
:1049680082F8773082F8793082F87A1082F87B30D2
:10497800024A1360704700BFD51F0020343C002056
:10498800F8B50D468C680A6828490646202002F0CA
:10499800AAFE6B687BB92649202002F0A4FE2020DD
:1049A80007F0C4FE2349202002F0B2FE2020BDE813
:1049B800F84007F0BBBE002EF1D01F4D1F4E204F10
:1049C800013C14F8013F23B91A49202002F0A0FE47
:1049D800E5E7752B18D0762B18D0772B18D0732BCA
:1049E80018D0722B18D0712B18D0622B18D06E2BC0
:1049F80018D02A2B18D01349134A212B18BF114657
:104A0800202002F070FEDCE72946F9E73146F7E797
:104A18003946F5E70D49F3E70D49F1E70D49EFE7A9
:104A28000D49EDE70D49EBE70D49E9E7C63303000A
:104A380002F40200B3F30200C0F30200B4F3020070
:104A4800CBF302000CF4020009F40200D7F30200D1
:104A5800E1F30200ECF30200F7F3020001F40200B4
:104A680006F40200F0B5214A92F87B30184452FA55
:104A780080F01F4B90F865C090F866501F78A5EB42
:104A88000C050026EDB23046F4B2A54225D90CEB50
:104A9800060313445B7811B10CB92D2B17D0782B72
:104AA8001FD0582B05D108B137240AE0013C012C4E
:104AB80014D9602B17D8402BF6D83A2B34BF3024A2
:104AC80000241B1BDBB29F4203D900FB07300136D1
:104AD800DAE7052382F879300020F0BD102700209E
:104AE800F5E70028E2D05724EBE700BFD51F0020E8
:104AF8006A1A0020014B1B6818687047343C002074
:104B0800FFF726BF034B93F8770093F87B30C01A62
:104B1800C0B27047D51F00200021FFF7A3BF0000D7
:104B280010B50A4B93F87B20024453FA82F292F8AC
:104B3800652013445C78A4F12D0359425941FFF7CD
:104B480091FF2D2C08BF404210BD00BFD51F00208B
:104B580030B50C4A92F87B300344C043DBB2C00F37
:104B680039B1D51895F8664095F86550641B241A34
:104B78000C7042FA83F393F865301844024B1844DA
:104B880030BD00BFD51F0020D61F0020F7B50E4648
:104B98000DF1070115461C46FFF7DAFF9DF80730AF
:104BA800AB42074688BF8DF807501CB19DF80740F7
:104BB8002C1BE4B222463046002100F07BFB301962
:104BC8009DF80720394600F019FB9DF8070003B04F
:104BD800F0BD38B508220C460123FFF7D7FF04F1D2
:104BE8000803621E043413F8011D12F8015F1D70DA
:104BF800A3421170F7D138BD38B5014605460120EA
:104C0800FFF7BEFED5E901436CB91C46084D236881
:104C180063B12946202002F066FD21460020FFF7F7
:104C2800AFFE0C34F3E71B786E2BEFD038BD00BF16
:104C38002336030008B50449202002F054FD202043
:104C4800BDE8084007F072BD74F3020038B5FFF7FD
:104C5800F1FF064D002461190C34631953F80C3C1C
:104C680003B938BD0020FFF78BFEF4E79C00030072
:104C78002DE9F84F1F4B204D53F820201F492020C5
:104C880002F031FD2B681BB9BDE8F84FFFF7DEBF16
:104C98001B4FDFF874A0FFF7CDFF0026B94697F841
:104CA8007B30F4B2013B9C4204DB2868BDE8F84F36
:104CB800FFF7A2BF47FA86F34C4493F865800023B8
:104CC800C84494F8662094F86510521A03F1010B51
:104CD800D2B2DBB2934205D30A49202002F003FD89
:104CE8000136DCE7434451465A78202002F0FBFCA9
:104CF8005B46E6E76C1A0020343C00206FF30200A4
:104D0800D51F0020243603003C3903002DE9F74F56
:104D1800884C94F87730002B00F0A280864B1B78E3
:104D280013F0010F04F101071FD00025834E14E092
:104D38006319202093F8662093F86530D21A44FA54
:104D480085F3D2B293F86510394407F0EAFC31468E
:104D5800202002F0C8FC0135EDB294F87730AB4260
:104D6800E6D87749202002F0BEFC94F8773001930A
:104D7800DFF8D8E1734B002671461EF8012B91F835
:104D880001C04FF00008ACEB020C07EB020A5FFA17
:104D98008CFC45461868002852D00138D14619E0E5
:104DA8002AB9002D4AD04FF001080C33F2E719F860
:104DB800011BA1F1410BBBF1190F98BF2031A2F1E2
:104DC800410B98BFC9B2BBF1190F9CBF2032D2B2B8
:104DD8008A42EAD1A9EB0A01614510F8012FDFD117
:104DE800002ADED11D46584B1D6094F87B300133F4
:104DF80084F87B30D5E901230136F6B2002A35D094
:104E08001B786E2B31D03F2B23D04FF00009C846BA
:104E18004FF0070B042394F87710AA68B14212F8F0
:104E280008702BD8AFB1904498F801302A2B10D0D5
:104E3800212F1CBF032384F879300AE01D46B4E70C
:104E4800B8F1000F01D1002DCDD1022384F87930BB
:104E5800002594F87900002869D168680AF032F9C9
:104E680003B0BDE8F04FFFF773BD1346019AB24295
:104E780082D8032284F879201D46EAE7732F09D8DF
:104E8800712F0BD2212F1FD0622F3CD0002F4BD176
:104E9800032246E0A7F17502022A45D8752F29D0CA
:104EA800762F2AD0732F2BD0722F47F6FF7A18BF90
:104EB8004FF0FF3A012148460193FFF7D3FD5045D3
:104EC800019B01D984F87930AA68424452782A2A89
:104ED80094F879201CBF08F101085FFA88F8002AC5
:104EE800B7D1212F1FBF013609F10109F6B25FFAC8
:104EF80089F990E74FF0FF0ADCE74FF6FF7AD9E728
:104F08004FF07F0AD6E794F87B204A4454FA82F29D
:104F180092F8652022445278222AD5D07B2AD3D011
:104F2800052284F87920CFE784F879B0CCE7FFF739
:104F38009FFE95E7D51F002051200020243603004E
:104F4800B1F302009C000300343C00203A2000200A
:104F58002DE9F3415E4C5F4F06460D464FF00008C1
:104F680066B90DF10701284607F0D6FB78B1262867
:104F780000F0A980012384F879304BE0002D00F07F
:104F8800A28016F8013B8DF80730013DEDB23A7862
:104F98009DF807303B700D2A01D10A2BE0D00D2B6C
:104FA8000CD0A3F10A025142514122788846042AC2
:104FB800D6D8DFE802F0051D263C31000121F4E7D0
:104FC80021B1FFF7A3FE4FF00108C9E7202B63D0FA
:104FD800222B07D10223237094F87820642A5DD10C
:104FE8000623C8E77B2B01D10323F4E70123F2E76B
:104FF80009B9202BF0D194F87730112B3FD1032336
:10500800B9E7222BF7D00029E6D0052384F87930B8
:105018004FF0010804232370B8F1000FA0D094F8D2
:10502800790008B1FFF724FEFFF792FC98E77D2B83
:1050380094F87A0003D1FF28DDD005239BE7602B85
:1050480013D8402B13D8392B8CBF002230229A1A40
:10505800D2B20F2A10D8FF280BD002EB0012FF2380
:105068008DF8072084F87A30B6E75722EFE7372221
:10507800EDE784F87A2073E7202BDED170E701335F
:10508800DBB284F87730234494F8782083F86520DD
:1050980000232370002994D1884661E72378012BE7
:1050A80009D19DF80730A3F1410119299CBF20338C
:1050B800DBB28DF80730A3189DF80710597001323C
:1050C80084F878204CE7404602B0BDE8F08100BF84
:1050D800D51F00205220002049BA89B24840C0F3A9
:1050E80003114140080380B24840C3B280EA43102C
:1050F800704713F09DBC7047704770477047704702
:1051080070477047704770477047704770477047DF
:1051180070470020704770470020704782B002AB8C
:1051280003E9060002B070477047704700207047D7
:105138000020704770470120704701207047704772
:105148007047704770477047704770472DE9F047C0
:10515800204DDFF8A090DFF8A0A000245FFA84F8C3
:10516800404616F07DFCFF2806460CD122461A4917
:10517800287802F0CDFA2878013407F0D7FA142CF1
:10518800ECD1BDE8F087154B59F82420144947B2F3
:1051980013EA270338BF5346287802F0B9FA002FDC
:1051A800E9DA14B1B8F1030F08D10E4B0E4928788B
:1051B80016F0010F18BF194602F0AAFA0A2CDAD124
:1051C8000A4B0B49287816F0010F18BF194602F050
:1051D8009FFAD0E7E91C002029F50200B3F302008A
:1051E80051F50200ECF4020002F5020014F5020089
:1051F8001EF5020098F402007B3403008842F0B5E3
:105208004FEA92031AD89BB29E00871904460D46AE
:1052180004370434BC4205F104053AD1C3EB8333A7
:10522800314402EB8303013E304411FA83F399427F
:1052380020D011F8012B00F8012FF8E7541E204464
:105248009BB22144A0EB830604460D46043E043C71
:10525800B442A5F104050ED16FF003045C43C3EB1F
:10526800833302EB830321449BB201342044CB1ADD
:10527800994209D1F0BD2F792771EF78E770AF789F
:10528800A7706F786770E2E711F8012900F8012D1F
:10529800EEE715F804CC04F804CC15F803CC04F8B0
:1052A80003CC15F802CC04F802CC15F801CC04F8AC
:1052B80001CCAEE70244904200D1704700F8011BD0
:1052C800F9E710B5013801390AB9104606E010F8B7
:1052D800014F11F8013F9C4201D0E01A10BD013A7C
:1052E80092B2F1E782B2074B42B11A80000C064B2A
:1052F8000ABF4FF6CE2218801A8070474BF6EF622D
:10530800F3E700BF2C1B00202E1B0020094B188838
:10531800020448BF80F0620042001A80064A1388DF
:10532800190444BF83F4805383F00B0359001180A0
:10533800584070472C1B00202E1B0020034B187070
:10534800034B1970034B00221A7070475920002034
:10535800582000205A2000202DE9F04F234E3378A2
:1053680085B007468846002B3DD0214D4FF6FB738C
:1053780098422C7803D952211E4800F017FF1E4B83
:105388004FF0000B9A46327818785FFA8BF94A4545
:1053980011D9484402A9C0B201931EF0F1FE0822B7
:1053A80041460DEB0200FFF78CFF0BF1010B019B4F
:1053B8000028E8D14C462B78A34207D1631C3278E9
:1053C800DBB29A422B7004BF00232B709AF800308E
:1053D8001C44E4B2414620461EF0E4FF18B93946A1
:1053E80020461EF0B7FE05B0BDE8F08F582000201B
:1053F8005A20002046F6020059200020024B187857
:1054080000F07F00704700BF5B200020034B187836
:105418000130C0B2187000F07F0070475B20002098
:105428001FB5030A8DF80E300323009303AB8DF8E4
:105438000D0000F0BDF905B05DF804FB1FB5030AC7
:105448008DF80F1004218DF80E30009103AB8DF804
:105458000D0000F0ADF905B05DF804FB2DE9F0434F
:1054680089B00746BDF840509DF84460BDF84C40EF
:1054780088460DF10900114608229946FFF7BEFE3D
:105488008DF81250012E4FEA15258DF811908DF8E0
:1054980013508DF8146017D0032E1CD108221299CE
:1054A8000DF11500FFF7AAFE9DF850308DF81D305C
:1054B80016230093BDF8542002AB4146384600F04D
:1054C80077F909B0BDE8F0838DF81540240A8DF806
:1054D80016400F23EDE70120F3E71FB50C461946E8
:1054E80002238DF80D2000930A4603AB014620469F
:1054F80000F05EF904B010BD70B586B004461646DB
:105508000DF10D0008221D46FFF778FE0A230093CF
:105518002A4603AB342120468DF8156000F048F97F
:1055280006B070BD30B585B00024ADF80A20021D64
:1055380092B2012A1D46ADF80840ADF80610ADF844
:10554800044003D94FF6FF72904207D1064A2B4612
:10555800127801A91CF0D2FF05B030BD014601AA9E
:1055680020461DF091F8F7E7301B00202DE9F74F92
:10557800FF2A98461DBF464B1B689C5C002418BF39
:105588006408B8F1FF0F1EBF414B1B6813F8087081
:105598000E46814614BF7F0800271546FFF736FFE1
:1055A8004FEA19238DF800008DF803600621360AAA
:1055B80068468DF804608DF801908DF802308DF8FA
:1055C800054017F003F8FF28064604D118242046A2
:1055D80003B0BDE8F08F4FEA440B0BF1070A0AEB62
:1055E8004701C9B216F0A6FF0028EFD10446A3452B
:1055F8001BD10BF106013A4601F0FE01304617F0C7
:1056080060F85FFA8AF44FF0000A5FFA8AF5AF4251
:1056180023D83346BDF8302006214846FFF782FFDD
:105628000446304616F076FED1E72146284617F0A4
:1056380043F8A11D0246C9B2304617F042F8611C72
:10564800C9B2284617F038F8E11D0246C9B23046FB
:10565800023417F036F8E4B2C9E76D00EDB2294616
:10566800404617F029F821460246304617F029F837
:10567800691CC9B2404617F01FF8611C0246C9B23E
:105688003046023417F01DF80AF1010AE4B2BCE70B
:10569800D81A00202DE9F04188B00F4602A9064625
:1056A80008F05AFB00287CD0FFF7B0FE8DF81000F8
:1056B80016F0B6FB8DF8110016F0B2FB000A8DF853
:1056C8001200082239490DF11300FFF797FDBDF8C4
:1056D80008308DF81C301B0A8DF81D300F219DF8FD
:1056E8000D308DF81B6004A88DF81E3016F06EFF83
:1056F800FF28044657D04FF000089DF80D305FFA98
:1057080088F2934208F101081DD801220DF10E011B
:10571800204616F09DFF4FF000089DF80E305FFA06
:1057280088F2934208F1010824D823463A462021FA
:105738000020FFF7F7FE0546204616F0EBFD284649
:1057480008B0BDE8F0810021304608F031FB0DF1CA
:1057580007018DF8070005460122204616F078FF5C
:105768002D0A01220DF1070120468DF8075016F089
:105778006FFFC2E70121304608F01AFB0DF107015F
:105788008DF8070005460122204616F061FF2D0A14
:1057980001220DF1070120468DF8075016F058FF39
:1057A800BBE7A325CBE71825C9E700BF6141002067
:1057B800F8B51C460E4617460546FFF727FE9DF826
:1057C80018102070204616F001FFFF2804460BD061
:1057D80003463A4628463146FFF7A4FE05462046CA
:1057E80016F098FD2846F8BD1825FBE708B5FEF722
:1057F80027FFBDE808400BF083BC08B5FFF767F842
:10580800BDE808400BF0A2BC7047FFF77AB8FFF775
:105818007EB80020704738B504460D46FFF795F866
:1058280029462046BDE8384007F0FABBFFF771B8B3
:10583800FFF77DB84022032101200CF08DB9012229
:10584800032110460CF088B90022032101200CF036
:1058580083B90222032101200CF07EB90122002124
:1058680009200CF079B90120704701207047012008
:10587800704700002DE9F84F184E80460D46144633
:10588800994606F1010A0DB9BDE8F88F102D4FF0C1
:105898000D02494650462F4628BF1027FFF7AEFC99
:1058A800012333700D48F4730023B37301341EF0E1
:1058B800F5FD0B495FFA87FBE4B2424612F8013B5B
:1058C80011F8010F434002F8013CA2EB0803DBB2D8
:1058D8005B45F3D3ED1BADB29046D4E760200020C2
:1058E8005F2000202DE9F04F374D85B01746BDF8F1
:1058F8003880019003930D220F9B02930E460146B8
:10590800681CFFF77BFC49232B7028464FEA1823B5
:10591800AB7385F80F801EF0C1FD2B7883EA17233F
:105928002B706B784FF002097B406B704C46AA468F
:105938004FF0000B21E0C4F1100CA7EB0B031FFA8A
:105948008CFC9BB2634528BF63463046A11B00EB25
:10595800010C5FFA8CF2A0EB060C1FFA8CFC9C453C
:105968001BD31C44E4B29B44102C1E441FFA8BFB2F
:1059780003D128461EF092FD0024BB45DBD314B1A9
:1059880050461EF08BFDB9F1010F4FF00004039E45
:1059980047460BD04FF00109CAE710F801CB1AF8B7
:1059A80002E08CEA0E0C0AF802C0D0E70298064919
:1059B8000422FFF723FC019B02982246042105B02C
:1059C800BDE8F04FFFF756BF60200020F7B5099FEC
:1059D800BDF82040CDE9004706461D46FFF782FF87
:1059E8002CB13346012221462846FFF743FF002009
:1059F80003B0F0BD2DE9F743BDF828700F4C1E46E3
:105A08000546884691460346394630460122FFF747
:105A180031FF33464A4641462846CDE90074FFF730
:105A280061FF042221460B98FFF74BFC002814BFA6
:105A38007E20002003B0BDE8F08300BF5C2000207A
:105A48002DE9F3410A4F0C46991815461E46804623
:105A5800214438460422FFF7D1FBCDE900676319DA
:105A68002A4621464046FFF7C5FF02B0BDE8F0814F
:105A78007020002000207047002070477047704752
:105A880007B50020FFF748F802AA003018BF012028
:105A980002F8010D01237F21242001F093FC03B0BB
:105AA8005DF804FB902810D0912810D09B2810D0C6
:105AB800942810D0AD2810D10423084A084902EBD5
:105AC800C30304205A680AF07FBA0023F5E70123CC
:105AD800F3E70223F1E70323EFE77047FC0B03002A
:105AE800240C030038B528F041FFFEF7C5FE00245A
:105AF80008F0A0FBE5B2A84204F1010400D838BDC3
:105B0800284608F07BFD054608F0AFFE2846FEF75C
:105B1800B2FE2846FEF7B2FEEAE70000014816F09A
:105B2800E3B900BF703C0020F8B50D46164613498E
:105B3800134A0446002808BF0A461F46114903466F
:105B480004200AF025FA3A460F4904200AF020FA00
:105B58002A460E49042033460AF01AFA22460C490E
:105B680004200AF015FA14B90A4B1C70F8BD4FF45A
:105B7800A0510848BDE8F84016F0C2B9390B030037
:105B8800DE0C0300460B03006C0B0300820B0300C2
:105B9800A60B0300683C002010B5244904460420E5
:105BA8000AF012FA08F00CF8FFF77CFF3CB1012C60
:105BB80005D0022C03D0032C01D0042C07D11C4B98
:105BC8001C4903EBC40304205A680AF0FDF9902C21
:105BD8000CD12046FEF7ACFD174B184800221A706E
:105BE8004EF66021BDE8104016F08AB9912C1CD100
:105BF80007F0E6FF044668B9114904200AF0C8F91D
:105C0800FFF770FF0C4B1C70FEF760FD4FF4A051BE
:105C18000C48E7E707F0D4FF032806D10A49042017
:105C28000AF0B6F94FF47021F2E710BD940A0300A8
:105C3800D40B0300240C030074200020783C0020BF
:105C4800AC0A0300683C0020DC0A030007B50A4BD5
:105C580000221A70242101237F220DF1070001F090
:105C680077FB9DF807301BB1044904200AF0ACF912
:105C780003B05DF804FB00BF783C0020270A03004E
:105C880008B505F003FBE0B905F006FBC8B90D4BF4
:105C98001A78072A0CD801321A7006F02BFAFEF788
:105CA8001EFE4FF420410848BDE8084016F028B908
:105CB800042006490AF06CF99320BDE80840FEF775
:105CC80037BD08BD74200020683C0020070B030086
:105CD80007B501237F2224210DF1070001F038FBCD
:105CE8009DF807301BB1084904200AF06DF9074BED
:105CF80000221A7007F064FF18B9FEF7E7FCFFF7F7
:105D0800BFFF03B05DF804FB270A0300703C0020C6
:105D180010B5154C15490023042023700AF054F9D6
:105D280007F04EFFFFF7BEFE07F04AFF012819D023
:105D380007D3032809D00E490420BDE810400AF013
:105D480027B9BDE81040FFF79BBF0A4904200AF0B5
:105D58001FF920464FF4702116F0D2F8BDE8104024
:105D6800FEF7EBBD10BD00BF683C0020510A0300E0
:105D7800840A0300680A030008B507F021FFFFF74B
:105D880091FE0A4B00221A7007F01AFF022805D16B
:105D9800FEF79CFCBDE8084019F012B807F010FFA8
:105DA8000328F5D0BDE80840FFF76ABF742000203B
:105DB800FFF798BE10B5104C1049A1610323216666
:105DC8000F494FF48062C4E904330E4BE361C4E920
:105DD800191200230C49A362E01D6362E362236782
:105DE800E3666367226229F0C9F90849204629F069
:105DF800C5F92023A37110BD803C0020030D0300CA
:105E080075200020752400200C0D0300100D0300E0
:105E18002DE9F84F1F4B16461A7881468A46984650
:105E28000AB9FFF7C7FF182707FB09873D6FD7F89F
:105E38006CB05D452BD9BC6E796E641BB44228BF2B
:105E4800344629445046224629F085F9BB6E25443C
:105E5800A244361BAB4208BF0025ABEB050B5E45E1
:105E680028BF5E4656B1182303FB09833246596E94
:105E78005046294429F06FF93444354424B1182395
:105E880003FB0988C8F870502046BDE8F88F002445
:105E9800E3E700BF803C002010B50B46EFF3118408
:105EA8004FF0200181F311881946FFF7B1FF84F301
:105EB800118810BD2DE9F84F144D9B462B7881466B
:105EC800884692460BB9FFF775FFEFF3118C4FF038
:105ED800200181F311886F690020182303FB005407
:105EE800666E2EB101308742F8DC4FF0FF3009E0D2
:105EF8008742FADDC4E91898C4F868A02667E66600
:105F0800C4F874B08CF31188BDE8F88F803C002089
:105F1800FFF750BF012270B51146042003F0E8FED8
:105F28001A4B1B4D1A681B4842F001021A60DA68C6
:105F38004FF0604442F08072DA60174BC4F8B03F0B
:105F480000260223C4F8006EC4F8806EC5F8F0304D
:105F580003F0E8FD00F5D520104B114A00F2FC4093
:105F6800B0FBF3F00F4B01382861C4F8406E1A609B
:105F78000D4BC4F8803E4FF48073C5F80433D4F851
:105F8800003E43F48073C4F8003E70BDF0ED00E0BD
:105F9800000004E006000E0055CEACC5F8590D000F
:105FA800FF030040001000E00D00010010B50121C2
:105FB800104803F081FC104B01241C60002004F001
:105FC800A7FA234604220221052004F0F9FA204604
:105FD8000CF042FEFFF79EFF0CF03FFEFFF798FF24
:105FE8002346402205490648FFF764FF054B186021
:105FF800C00F10BD00250A00108814427528002023
:10600800170D0300341B002008B54FF06043D3F888
:10601800802ED10711D511490A6822F440620A601E
:10602800D3F8802E22F00102C3F8802ED3F8802EF8
:106038001202FBD4642025F0C4FC0022114604207F
:1060480003F056FE064A0023C2F8F030C2F80433C3
:10605800A2F54432A2F50472136008BD001000E0F6
:10606800000004E0024B1868003018BF0120704798
:10607800F0ED00E0054A4170D12303701378C37036
:10608800090A8170591C117004207047B528002036
:106098002DE9F74F354E33681C5C032C074663D94E
:1060A80025F056FDDFF8C88001900534E4B24FF6BC
:1060B800FF7A0025C146D8F800204AB1AC4207D97A
:1060C80025F046FD019BC01A80B2B0F5FA7F05D9CC
:1060D800601B18BF012003B0BDE8F08F002D3DD034
:1060E800012D1DD13268D55D4FF0020B4FF0604293
:1060F800D2F8801ECB0711D51146D9F80C0040F014
:106108008070C9F80C00D1F8000E40F48070C1F816
:10611800000E086A0028F0D082F820505D46CAE7D1
:10612800E21E05F1010B95425FFA8BFB02D15FFA83
:106138008AF5DBE7A21E954202D1CAF30725D5E707
:10614800621E95420ED0A91EC9B2384616F0B4FA9E
:1061580051460546FEF7C0FF8246C7E75B254FF06C
:10616800010BC3E75D25C1E70120B4E7D81A002079
:10617800F0ED00E010B50B4B90B04022694618686E
:10618800FFF78AFE58B1C1B2684616F01FFA0446F6
:106198000146122012F064F9204616F0BBF810B040
:1061A80010BD00BF341B002042DE704738B50446DE
:1061B8000D4612F011FD00F08BFD03F012FF294689
:1061C800204612F019F92B4622460549012006F00F
:1061D800B3FA29462046BDE83840FFF7E5BF00BFBF
:1061E800270D03006D4B2DE9F0416D4C5A68A265EF
:1061F8005A6AE2656B4AD2F800122166D2F8042284
:1062080062669A6AA266DA6AE2661A6B22675A6B53
:106218006267DB6BA26BA367D4E90F5312F0040F1C
:1062280018BF1D4625F038FC0022854203466065EC
:1062380022655CD35C4A954259D8AA696264E969C7
:10624800A164B4F85810C1F30801062953D157497D
:106258008A4250D356498A424DD211884DF642623D
:10626800914248D16268C4F89420A268C4F8982082
:1062780040F201704F4A5049934238BF13460A46CC
:106288008B423BD3D31AE3640023C4E91F33C4E928
:106298002133C4E92333484E444FDFF814C1AE42DA
:1062A80032D8D4E91FC7D4E92165D4E923124FF0C5
:1062B800000E013BDBB2FF2B41D1BEF1000F05D030
:1062C800C4E91FC7C4E92165C4E92312B4F85830EA
:1062D800C3F30803DA1E0F2A55D8DFE802F03A5B49
:1062E800474A54545454545154545454543E00221C
:1062F800C4E911221D464FF42060BBE71E68B6F1C1
:10630800CD3FBFD10433BBE756F8042DBA42C6D3FC
:106318006245C4D2D107C2D5002104EB010EDEF8D4
:106328007CE09645BBD004311829F6D10BB905237A
:1063380001E0013BDBB204EB8301CA67AFE7E0464B
:106348004FF0010EBC4637462E460D4611464246D2
:10635800AFE740F60120BDE8F081184BDB6913F088
:10636800020F40F2025318BF1846F4E740F6032024
:10637800F1E740F60423B0F5206F08BF1846EAE7B6
:1063880040F60520E7E7013B40F60722302B98BF8F
:106398001046E0E740F60220DDE700BF00ED00E030
:1063A8000000002000E100E0401A0020E041000069
:1063B80098F102009C000020601A0020002005408F
:1063C80007B501F051FC01210D4803F075FA0121D0
:1063D8000C4803F071FA0322104601230F2104F040
:1063E800EFF809490F2001F04DFC01230F22CDE9F8
:1063F80000331146032004F097F803B05DF804FB5E
:106408004041050000250A00656400000F280ABF06
:10641800014B002018787047B62800200F2804BFC9
:10642800014B1970704700BFB62800200F2805D10E
:10643800034A1378B3FA83F35B091370704700BFFC
:10644800B62800200F2809BF034B00201868B0FAAF
:1064580080F008BF40097047BC15144210B50446C7
:10646800FFF7F0FF0022014601E00022194620460E
:10647800FFF7E8FF88420346F7D10132052AF2D137
:106488002046FFF7C3FF8842204609D0FFF7C6FF22
:106498002046FFF7BBFF0146204607F0DBFA10BD98
:1064A800FFF7C4FFFFF7B2FF0146204607F0D2FA14
:1064B8002046FFF7BBFFEBE710B504F0C3FA04462C
:1064C80004F0BAFA0022012101FA02F3234014D0A1
:1064D8001B4B33F812301B4A062B13D040F207210E
:1064E8008B420DD1184919480C68844208D14CF2E6
:1064F8003C334B800B88138012E00132112AE3D120
:10650800104AF8E7104B58884FF20F01884214D10F
:106518001988B1F5406F10D211804CF23C325A8084
:10652800084B1A8840F201739A4201BF084A094B86
:10653800D2E90001C3E9000110BD4FF4C061EBE7E7
:106548003A0D0300C02800200000002007020FF0C9
:1065580094000020B8280020014B1888000A7047D2
:10656800C0280020014B1888704700BFC0280020B1
:106578002DE9F04F494C4A4AA36BD4F850B0D4F8EF
:1065880040A0054658074FBF0027D4F84CB0D4F8B0
:106598005480D4F83CA059BF424FDFF83891DFF857
:1065A8003891B84613F0080F3F4B18BF1A46B7EB9F
:1065B80008061CBF7308642187B01FBF01FB0B339B
:1065C800B3FBF6F39BB205933849CDF800804B46F0
:1065D800CDE9017A284608BF059601F099F8B3B2CB
:1065E800CDE900933249059B1FFA8BF2284601F04A
:1065F8008FF8A36B59070AD49C3E5E4507D1626D9C
:106608002C4B9A4203D22C49284601F081F8BA450E
:1066180001D8C24504D24A462849284601F078F8EC
:10662800284606F083F8236E0BB9636E7BB32449C2
:10663800DFF8A880DFF89090284601F054F800268B
:106648000127226E07FA06F3134207D058F82620CE
:1066580013781BB14946284601F045F80136202E2B
:10666800EFD1636EDA0704D5164A1749284601F0B8
:106678003AF8636E9B0704D5144A1349284601F07B
:1066880032F8284607B0BDE8F04F01F03BB8104992
:10669800284607B0BDE8F04F01F03AB800000020E6
:1066A8004A100300601A0020431003005210030030
:1066B800801003009C000020B9100300E5100300BF
:1066C8000311030032110300C53303003F11030017
:1066D8004A1103003E1003002F2503006011030038
:1066E8002DE9F8430446FFF73DFF40F601239842A1
:1066F80039D010D840F2025398421DD040F20173AD
:10670800984224D040F20153984213D1654920465B
:1067180000F0FEFF22E040F6032398426CD03DD300
:1067280040F60423984200F09C8040F605239842E6
:1067380000F0B580BDE8F8835B49204600F0E8FF2B
:106748005A4B5B495A6C204600F0E2FF06E0574A74
:106758005849D2E92523204600F0DAFF2046BDE853
:10676800F84305F0E3BF514D5349204600F0D0FFF0
:1067780095F86C309F0703D55049204600F0C8FFB4
:1067880095F86F305E0603D54D49204600F0C0FFEE
:1067980095F96F30002BE1DA4A49B8E7434D4A4989
:1067A800204600F0B5FF95F86830980704D06A6C69
:1067B8003F49204600F0ACFF95F96830002B04DA19
:1067C8006A6F4249204600F0A3FFDFF80C81DFF82A
:1067D800189100260127AA6E07FA06F3134207D07C
:1067E80058F8262013781BB14946204600F090FF40
:1067F8000136082EEFD1B1E72C4D3549204600F07F
:1068080087FF2B496A6C204600F082FF95F86930B3
:10681800590703D52F49204600F07AFF95F96930CA
:10682800002B04DA6A6F2949204600F071FF2A4FCD
:10683800DFF8B4800826AB6EF340DA0707D557F8BF
:10684800262013781BB14146204600F061FF01362F
:10685800102EF0D195F86830002B7FF47FAF1F49D8
:1068680055E7124D1E491C4FDFF87C80204600F08A
:106878004FFF6A6C0E49204600F04AFF1026AB6EA7
:10688800F340DB0707D557F8262013781BB141469C
:10689800204600F03DFF01361A2EF0D15EE711497F
:1068A8004BE700BFCD0D03000A0E030000000020D7
:1068B8003A0E0300530E03006D0E0300850E03000D
:1068C800BF0E0300F20E03002E0F0300530F030048
:1068D800770F03008E0F03005C0D0300D40F030035
:1068E800041003001D1003006F0F03002DE9F84F7B
:1068F800164C174FDFF86080DFF860A006460025C9
:1069080023785FFA85FB0BB9BDE8F88F57F8043B8D
:1069180010492246304600F0E6FE227804F10109CB
:1069280082B9627882B10BF0030103290CBF41469A
:106938005146304600F0D7FE304605F0F7FE0135E7
:106948004C46DDE74C46E8E74146F2E7E81103002C
:1069580004000020C40D0300B1F302001028030056
:1069680000F00CB800F00AB800F008B800F006B85B
:1069780000F004B800F002B800F000B872B61EF0DB
:10698800080F09D01EF0040F0DD0DFF850E0AEE874
:10699800FF1F6FF002000CE0DFF840E0AEE8FF1FD9
:1069A8006FF00E0005E0DFF834E0AEE8FF1F6FF08F
:1069B80006006946EFF309828EE807008646084814
:1069C800084C854501D3A54501D384F30888FFF712
:1069D80009FC84F3088825F01DF800000400002055
:1069E80040110020601A0020FFF7C6BF10B5012132
:1069F8000A4802F061FF0121094802F05DFF002307
:106A080004220E21032003F0DBFD002304220A21C7
:106A18000220BDE8104003F0D3BD00BF404105008F
:106A280000250A00064B03EBC00213F8303051680A
:106A380001228A4030215943024B5A50704700BF07
:106A4800A81703000CA00046064B03EBC00213F87E
:106A58003030516801228A4030215943024B5A5044
:106A6800704700BFA81703000CA00044074A12F89B
:106A7800301002EBC002536801229A4030234B4386
:106A880003F1804303F520439A617047A817030078
:106A980010B10020FFF7C6BFFFF7D6BF37B57F2A72
:106AA80014BF154600254BF234629142044619D1B1
:106AB8007F2241F2020168460823FFF7EFFF082210
:106AC80024496846FEF7FDFB30B908237F2241F2CE
:106AD800F0116846FFF7E2FF082269462046FEF7F4
:106AE8008DFB09E041F2F01291421AD11A490A6C61
:106AF800496C01381D1F0BB903B030BD013B9D42E5
:106B080000F8012F4FEA1222F5D1033400229A42ED
:106B1800F2D00132042A04F8011F4FEA1121F6D1FC
:106B2800EAE701F47042B2F5805F07D1C1F30B04C4
:106B380004F17E649AB203FB0541D0E701F4604298
:106B4800B2F5005FD8D1C1F30B0404F17E6404F5FB
:106B58008044EFE74C180300B081E00F70B505469C
:106B680016461C46DBB14BF23463994210D1082C0F
:106B780028BF08247F2241F202012346FFF78EFF37
:106B8800A2B207492846FEF79CFB40B941F2F01132
:106B9800234632462846BDE87040FFF77FBF70BDE8
:106BA8004C1803002DE9F8431646C20704460F4661
:106BB80003D5DD212748FFF7F9FAF30703D5DE21CE
:106BC8002448FFF7F3FA04F47043B3F5805F21D14A
:106BD800C4F30B0404F17E64731E1F4A23449342DA
:106BE800254603D9E3211B48FFF7E0FADFF8649054
:106BF80005EB0608454522D156B3720839462046AA
:106C080024F093FE20B340F20F111248BDE8F84378
:106C1800FFF7CCBA04F46043B3F5005F07D1C4F3BF
:106C28000B0404F17E6404F580442546DEE7EA217E
:106C38000848FFF7BBFA6FF00F050024D6E715F8F0
:106C4800013BFF2BD6D0F4214846FFF7AFFAD1E736
:106C5800BDE8F883D0170300FF07E00FFFF780BEF9
:106C68001FB501211648174C02F026FE01221146D5
:106C7800104603F03DF80421072003F0CDFE124A28
:106C88001068516801AB03C39068186001238DF840
:106C980004300D238DF80C3001A9032320468DF80C
:106CA8000D3004F0C2F8094B04220221C3F88021F8
:106CB80061621A60A36A0B43A36204B010BD00BFEF
:106CC80030053E00002005405418030000E100E0B4
:106CD800014804F09EB800BF00200540A52803D154
:106CE8000021024804F081B8704700BF0020054029
:106CF800024B186800F00100704700BF00200540F3
:106D0800024A9368002BFCD1704700BF0020054061
:106D1800002070477047000037B572B603F061F97C
:106D2800714B72495B698B6000230B76E0204B76D0
:106D38008B764023C876087748778877CB776C4B73
:106D48008022602481F8202081F8210081F8220027
:106D580081F8232083F8002383F80143202483F853
:106D6800024383F8032383F8042383F8052383F875
:106D7800062383F8072383F8082383F8092383F875
:106D88000A2383F80B2383F80C2383F80D2383F855
:106D98000E2383F80F2383F8102383F8112383F835
:106DA800122383F8132383F8142383F8152383F815
:106DB800162383F8172383F8182383F8192383F8F5
:106DC8001A2383F81B2383F81C2383F81D2383F8D5
:106DD8001E2383F81F2383F8202383F8214383F895
:106DE800220383F8230383F8240383F8250383F815
:106DF800260383F82703CB6823F4E0631B041B0CEA
:106E080043F0BF6343F40133CB604B6943F4007331
:106E18004B614B6943F010034B614FF4E0234B6225
:106E280004F084F9FFF748FBEFF30883314A043B89
:106E38004FF0CD3193422ED22F4A304892B20021E2
:106E4800FEF738FA62B62E4B01225A642D4BDC6CE1
:106E58006846240E03F086FE8E2C1FD82A49D1F8E6
:106E6800B00040F00403C1F8B030284B4FF0501286
:106E78001A601A631A66C3F89020C3F8C020C3F8D2
:106E8800F020C1F8B000204AD36A23F07F0343F012
:106E98002003D36204E01960043BCBE78F2CF2D9BE
:106EA8009DF80130012B01BF194A136843F0040310
:106EB8001360184B00241C60174B01251D6104F05A
:106EC80089F801F071FB684600948DF804408DF84C
:106ED800035003F0F3F900F025F924F04BFE0F48B6
:106EE8000BF0C4FE03B030BD0040000000ED00E030
:106EF80000E100E0001100203C100000A00000208C
:106F080000000E40B081E00F00400E4000A000409D
:106F180064310E40B40AC64300300E407C3D030085
:106F280040F2016024F076BD04F052B804F051B884
:106F3800FEF7A4BD08B500210B20FEF79DFDBDE8B6
:106F48000840FEF79CBD032000F076BA08B5FFF7AD
:106F580003FB044B0B289ABF00B203EB80001846D2
:106F680008BD00BFAC19030008B5FFF7FBFA044BD6
:106F7800C0F30F22C0B253F8223003EB800008BDE3
:106F88007019030010B5FFF7E7FA0446FFF7EAFAAD
:106F9800C0B228B9012C24D164F07F04E4B216E011
:106FA800072CF9D801A353F824F000BFD76F0000CD
:106FB800A16F0000D56F0000DB6F0000DB6F0000E1
:106FC800DF6F0000E36F0000E76F00000924204630
:106FD80010BD0224FBE70324F9E70B24F7E7062496
:106FE800F5E70446F3E700BF07282DE9F84F044604
:106FF8000F462DD0082808BF022421460120FDF79E
:10700800A5FCFFF775FE651ED5F1000848EB0508DD
:1070180000B3012C1ED1A520FFF760FE2646EFF332
:107028001089012383F31088EFF3118A4FF0000BC6
:107038008BF31188354D404605F000FE631EC5F8F8
:1070480000B0042B59D8DFE803F00E4D4D51550020
:107058000324D2E7FFF74CFE18B1FFF751FE0026D4
:10706800DDE70646DBE72A4A136923F004031361C8
:1070780030BF284AD2F82834D2F81C2413409BB2D7
:10708800254A2B60D2F80011880502D511688905B8
:1070980006D4D2F80011880305D51268910302D5E9
:1070A80043F480332B601C4BD3F80021920006D5A3
:1070B8001B689B0042BF2B6843F400332B601EB152
:1070C8000121164803F091FE404605F0CDFDCFB1F1
:1070D8008AF3118889F3108821460020BDE8F84F0B
:1070E800FDF734BC012003F087F8C2E7012003F064
:1070F800ABF8BEE703F040F9BBE788210848FFF783
:1071080055F8B6E787F31088E6E700BFC8280020DF
:1071180000ED00E000A0004000E100E00020054094
:10712800DC190300044AD2F81C341B0C1B04C2F8F7
:107138002434024A1360704700A00040C42800208D
:107148000021FFF751BFFFF7FBBF00002DE9F04F0B
:1071580089B011F07AF80746002840F0DD806F4EBC
:107168006F4D3168286826F0F7FB0446002827D0C1
:1071780033689A69D3E900011268904733689B69BC
:1071880004A89B68984733689B690220DB68984786
:107198003C46326805985368B3FBF0F3E7B2BB424C
:1071A800916904F1010442D8CB68002098473368FC
:1071B8009B695B6898473168286826F0CDFB0446D0
:1071C800DFF888910026002C53D1564BF35C4FEA28
:1071D8008608002B31D1544BF35C0193534BA246E4
:1071E80003EB080B019B28685FFA8AF7BB4253D868
:1071F8004F4BF35C002B3CD04C4B019F9844FBB2A7
:107208007E2B286835D8D8F8003007EB030A03AA84
:1072180002AB514626F0DAFD48452AD05146286887
:1072280026F01AFE013704460028E8D021E012684B
:107238000B6907FB00209847ABE73C4B286853F8DD
:10724800267003AA02AB394626F0C0FD484507D090
:1072580078B9039B012B0CD03946286826F0FCFD31
:10726800344B286853F8083039461A6826F0D8FC99
:1072780004460136252EA6D1B4FA84F32E4A5B09BA
:1072880013702E4B9C4241D02DD8002C32D0013B9C
:107298009C423FD0C5242DE0DBF800301F4403AAF0
:1072A80002AB394626F092FD48450AD010B10AF1E2
:1072B800010A97E7039B8BB9214B029AF35C9A4228
:1072C800F5D01F4B1B4A9B5D52F8082028683946A9
:1072D80026F018FC0028EAD0044689E739462868D1
:1072E80026F0BAFDEDE7174B9C4211D004339C42BF
:1072F800D0D1C1242B681B7C23B14FF4897112486B
:10730800FEF754FF204609B0BDE8F08FC324F1E72B
:10731800C424EFE7C224EDE7C624F3E78C1B002062
:10732800881B0020C4F9020008F9020010FA0200C4
:10733800E9F9020030F90200CC28002002E000F050
:10734800A4FA020004E000F05A1A03000BE000F06F
:10735800242970B506460C4615461AD8144A1278E0
:1073680022B3144A1068144A52F82110134A125DC5
:107378003AB1324626F0A2FCC0B1BDE87040FDF734
:10738800BABE7F2D08BF00253246294426F004FCEA
:10739800F2E7FF2903D9BDE87040FFF7DFBB40F2F1
:1073A80045110748BDE87040FEF700BF70BD00BF3B
:1073B800CC280020881B002010FA0200C4F9020023
:1073C8005A1A03002428F8B504460D46164619D85B
:1073D8001449097829B31449144F0868144951F815
:1073E80024103C5D3CB1126826F01AFCC8B1BDE817
:1073F800F840FDF780BE7F2D08BF0025294426F000
:1074080081FBF3E7FF2805D91A463146BDE8F84065
:10741800FFF7C8BB4FF4BC710648BDE8F840FEF75B
:10742800C5BEF8BDCC280020881B0020C4F9020086
:1074380010FA02005A1A030008B5084B1B7863B10A
:10744800074B53F82010074B0022186826F076FCEB
:1074580018B1BDE80840FDF74EBE08BDCC28002095
:1074680010FA0200881B002070B5164685180AB964
:10747800304470BD01F00F030A2B34BF3024372489
:107488002344013A090905F8013DD2B2EFE70000AB
:10749800F0B5F9B100281CDA2D23B0F1004F1370B4
:1074A80000D04042012115E0801B8642ECB205F174
:1074B8000105F9D904B927B14D1C303454540127BA
:1074C800E9B20133092B09D1303050540131C8B227
:1074D800F0BD00210023DFF80CC01F465CF82360D4
:1074E8000025E2E7D41A03002DE9F04F95B04FF0DC
:1074F800000B02AC81468A4617461D465E46A046EA
:107508003B7863B902ABE41AE4B222461946504606
:10751800C847002840F093803444E0B290E0252B1F
:1075280013D0BBF1000F14D12370013412AB9C426D
:107538006DD3A4EB0804E4B2224641465046C8473E
:1075480000287CD12644F6B260E0BBF1000F00D1E0
:1075580001373B78632B00F092801BD8392B09D870
:10756800302B80F09E80002BCCD0252B51D04FF0B3
:10757800000BDBE7582B00F08B80622BF7D12B68D0
:1075880001936B6800934FF0000B009B9B4543D120
:107598000835ECE7702B1ED017D8642B01D06C2B64
:1075A800E5D16C2B05F1040B28686CD17B78752B21
:1075B80014BF0121002101D0642B00D101372246DC
:1075C800FFF766FF04445D46D1E7752BE9D0782BB9
:1075D8005ED0732BCBD1A4EB0804E4B2224602A9F7
:1075E800504605F1040B2D68C84740BB2644F6B247
:1075F800C4B201302B5D002BFAD1224629465046F1
:10760800C847E0B926445D46F6B28346444601378A
:1076180076E723700134AAE7019B204613F80B1084
:107628000222FFF721FF12AB984204460ED3A0EBCB
:107638000804E4B2224641465046C84718B1002023
:1076480015B0BDE8F08F2644F6B24446009B013BD6
:107658005B4582BF20232370013412AB9C420BD3BD
:10766800A4EB0804E4B2224641465046C847002825
:10767800E5D12644F6B244460BF1010B85E72B68A9
:1076880023700435C6E7752B0CBF0021012196E74E
:10769800204602222978FFF7E7FE05F1040B04468D
:1076A80091E77A7802F0DF02582A19D1322B07F1D4
:1076B800010B09D129882F1D04222046FFF7D4FE8B
:1076C8003D4604465F4652E7342B09D12F1D2D68ED
:1076D8000422290C2046FFF7C7FE0422A9B2EDE7D1
:1076E8004FF0010B22E70EB403B503AA52F8041BAE
:1076F800019205F045FBC0B202B05DF804EB03B09F
:10770800704700000149FFF7EEBF00BFB1F3020068
:107718000EB433B505AA054652F8041B019205F0CC
:107728002FFB04462846FFF7EDFFE0B202B0BDE8A4
:10773800304003B0704708B505F022FBC0B208BD61
:107748002DE9F04F9B46584B85B01B78109F9DF84C
:1077580044A0DDF85080064689461546002B00F007
:107768009280072A00F291800E9B002B00F08D80FA
:107778000F9B002B00F08980129BB3F5006F00F37C
:107788008480012801D1002F7FD0484B03EB0513DB
:107798001B7B002B7BD0464C10220021684627F02B
:1077A800E5FC04EB45141022B9F1000F5CD1494601
:1077B800204627F0DBFCA37843F01003A370E3789E
:1077C80043F03003E370BAF1000F03D1DBB243F0AA
:1077D8000303E3703649129BCDF800B06A01013B00
:1077E800885A01EB020C63F30E1088520E9BCCF8FA
:1077F80008300F9BCCF804309DF84C109CF80330EF
:10780800012E61F383038CF8033042D11323CCF8A3
:107818000C309CE80F000CF1100E8EE80F00DCF81D
:107828001C20CCF814706FF0030161F39F02B9F1CA
:10783800010FCCF81C2004D10F9BCCF81830CCF8E1
:1078480004701A492A018B1841F802800027159AFA
:107858005A6028469F605E732246694602F03CFFE4
:10786800384605B0BDE8F08F0021204627F07EFCA1
:107878001023A3700323E370BAF1000FAAD1DBB27F
:1078880043F03003A5E70B48EBE70B48E9E70B4863
:10789800E7E7B8F1000FD4D19CF8023068F304137D
:1078A8008CF80230CDE700BF502A0020D0280020F5
:1078B80050290020028000F0018000F0078000F0CD
:1078C80038B5104B1B780546BBB1C0B102F091FB2F
:1078D8000D49002301EB0312147B3CB92B600123F3
:1078E8001373146002F08BFB204638BD0133082B5C
:1078F800F0D102F084FB0548F7E70548F5E70548AD
:10790800F3E700BF502A0020D0280020048000F0B0
:10791800028000F0018000F038B502F06AFB0B4AE3
:1079280005460023D1180C7B5CB91033802BF9D1A4
:1079380002F088FE064B28461C7002F060FB2046C9
:1079480038BD284602F05BFB0248F9E7D028002042
:10795800502A0020058000F00D4B1B7810B5044616
:1079680093B1072812D802F044FB0A4B03EB041327
:107978001A7B2AB100241C7302F041FB204610BD7B
:1079880002F03DFB0448FAE70448F8E70448F6E744
:10799800502A0020D0280020068000F0028000F045
:1079A800018000F013B5164B1868019000238DF87C
:1079B800043002F01EFB134B1C7824B102F01FFBAD
:1079C800114802B010BD01221A7002F018FB0F4BCB
:1079D8001C731C7783F82C4083F83C4083F84C4098
:1079E80083F85C4083F86C4083F87C4004230DEBFB
:1079F80003008DF8073002F045FE2046E1E700BF9E
:107A0800F81A0300502A0020038000F0D028002034
:107A180010B588B00E9C07940D9C06949DF83040D4
:107A280005940B9C04949DF8284003940024CDE908
:107A3800013400920B46024621462046FFF780FE9D
:107A480008B010BD10B588B00E9C07940D9C069424
:107A58009DF8304005940B9C04949DF828400394AD
:107A68000024CDE9013400920B460246012120464C
:107A7800FFF766FE08B010BD08B50A4B1B785BB16E
:107A880007280BD8084B03EB00131B7B43B10021DD
:107A980002F0EEFD002008BD0448FCE70448FAE7C0
:107AA8000448F8E7502A0020D0280020028000F07F
:107AB800018000F0078000F008B50A4B1B785BB125
:107AC80007280BD8084B03EB00131B7B43B101219C
:107AD80002F0CEFD002008BD0448FCE70448FAE7A0
:107AE8000448F8E7502A0020D0280020028000F03F
:107AF800018000F0078000F008B50A4B1B7853B1ED
:107B080007280AD8084B03EB00131B7B3BB102F094
:107B180035FE002008BD0548FCE70548FAE705489A
:107B2800F8E700BF502A0020D0280020028000F08B
:107B3800018000F0078000F00D4B1B7893B10728F7
:107B480012D889B10B4B03EB00131B7B73B10A4BA3
:107B58001A6A012303FA00F010401ABF00200B70C4
:107B680008707047054870470548704705487047D2
:107B7800502A0020D028002000200E40028000F06B
:107B8800018000F0078000F00B4B1B7810B50C4605
:107B980063B107280CD859B1084B03EB00131B7BC2
:107BA80043B102F001FE2060002010BD0448FCE74C
:107BB8000448FAE70448F8E7502A0020D0280020B3
:107BC800028000F0018000F0078000F02DE9F84302
:107BD800174E326EF36E12EA030800D5FEE7154C15
:107BE800DFF854900127002518EA070F16D02368FC
:107BF800B7669BB1A16862680131A16028469847C1
:107C0800637B012B0AD148B909EB4513197B1A7F0D
:107C180060F3410160F3410219731A770135082DA9
:107C28004FEA470704F11004DED1BDE8F88300BF2E
:107C380000200E40D02800205029002070B5094EA1
:107C48000446012504B970BD94FAA4F0B0FA80F096
:107C580005FA00F324EA030456F82030002BF1D08B
:107C68009847EFE7542A0020054B4FF40032C3F839
:107C780080211A604FF40072C3F880211A6070479F
:107C880000E100E038B504460D4602F0B2F9034BB6
:107C980043F82450BDE8384002F0B1B9542A002016
:107CA800074BD3F82804D3F81C24104020F42A509A
:107CB80020F02A004004400CC3F82404FFF7BEBF9C
:107CC80000A00040074BD3F82804D3F81C24104028
:107CD80020F4AA4020F055000004000CC3F8240446
:107CE800FFF7ACBF00A00040104A4161136830B5EF
:107CF8001546ABB91060836011E0091B9C684161AF
:107D08001A467CB123465C698C42F6D9002CF4D023
:107D180052B19060836013B15A69511A596130BDEC
:107D28000022F0E72346F4E72860F3E7A82A0020BA
:107D380010B500F0B7FA094B094A196831B1136850
:107D4800C41A4B69A34203D31B1B4B61106003E0A9
:107D5800C01A002310604B6110BD00BFA82A002084
:107D6800982A0020074B1B6810B55C69064B1B68F6
:107D780002201C4400F0C4FA2046BDE8104000F080
:107D880097BA00BFA82A0020982A002070B59DF84D
:107D980014500571002516468560049ABDF81850E0
:107DA800C58004460260C0E903360D4629B9616101
:107DB8000BB11146984796B1354602F01AF90646B6
:107DC800FFF7B6FF29462046FFF78EFF054B1B68D5
:107DD800A34201D1FFF7C6FF304602F010F9002098
:107DE80070BD00BFA82A00200C4A136800217BB18F
:107DF80083420AD1836879B18B6083681BB15A6961
:107E080041690A445A610020704719469B68EEE7A9
:107E18000028EFD0022070471360EEE7A82A002060
:107E280070B5124D02F0E5F82C780646CCB9104B27
:107E38001C60104B1C60104B1C8000F0F1F90120F5
:107E480000F05EFA00F0AAFA0C4B0246186040F205
:107E5800E73123460A4826F0B7FF0A4B186001238A
:107E68002B70304602F0CBF8002070BD942A002019
:107E7800A82A0020982A0020A02A0020A42A00204E
:107E880018FCFFFF9C2A00202DE9F0410546F8B1B7
:107E980002F0AFF80F4F0646FFF74AFF2846D7F81B
:107EA8000080FFF7A1FF044628B1304602F0A7F88A
:107EB8002046BDE8F081A8453B6803D123B1FFF710
:107EC80051FFF2E7002BF0D1022000F027FAECE78F
:107ED8002224EDE7A82A0020F0B50D4685B0164605
:107EE8001F46044680B1FFF7CFFFBDF82C30029340
:107EF8009DF828300022CDE90073294633462046F4
:107F0800FFF744FF05B0F0BD2220FBE738B50C466B
:107F1800054698B191B100230B7002F06AF8084B3E
:107F28001B6801210BB122781AB102F068F8002011
:107F380038BD9D420CBF21709B68F3E72220F7E70C
:107F4800A82A0020F0B587B01F4600230D46164624
:107F58008DF817300446A0B10DF11701FFF7D6FFD1
:107F68009DF817207AB9BDF8343002939DF8303067
:107F78002946CDE9007320463346FFF707FF07B0CF
:107F8800F0BD2220FBE70320F9E70000F8B50C4616
:107F98000646C8B1C1B102F02CF80546FFF7C8FE85
:107FA80073692360134B1B68B3420FD023B928466B
:107FB80002F025F803201CE0596922689B680A44EE
:107FC8002260F1E700230FE0222012E00A4E276822
:107FD80000F068F93368C01A8742F3D900F062F9F3
:107FE8003368C01A23681B1A2846236002F007F872
:107FF8000020F8BDA82A0020982A002070B501F0BA
:10800800F8FF064600F04EF9094B1C88054601208A
:10801800A4B200F09BF918B100F044F90134054608
:10802800304601F0ECFF002242EA0500214670BD0F
:10803800A02A00200A4B1B68834210B50C460CD3BB
:10804800084B19684FF47A720023A0FB010126F04F
:10805800BBFE01302060002010BD2120FCE700BFDE
:108068009C2A0020A42A0020104B1A684FF47A7327
:1080780010B5A0FB0301A2B1531E134211D1B2FAED
:1080880082F2C2F11F02C2F12004A2F1200301FA18
:1080980004F420FA02F2224321FA03F342EA03002D
:1080A80010BD002326F090FEFAE700BFA42A0020A6
:1080B800F8B516461BA3D3E900238B4208BF8242BA
:1080C8002AD3174B1A684FF47A73A0FB034503FBB6
:1080D8000155C2B1531E13EA020014D1B2FA82F25A
:1080E800C2F11F02C2F12007A2F1200124FA02F313
:1080F80005FA07F73B4325FA01F10B4325FA02F28B
:10810800C6E90032F8BD00232046294626F05CFE69
:10811800C6E900010020F5E72120F3E7AFF300806E
:10812800A42A0020EFA7C64B37894100C2072DE9D2
:10813800F84F04460BD5374A138801339BB2138096
:10814800FFF7F6FD344B1B680BB1FFF70BFEA307D7
:108158005DD5324EDFF8C09000F0A4F835680746C8
:10816800451B01F046FF4FF0000A8046D9F8004051
:10817800002C48D06369AB4209D95D1B6561376043
:10818800FFF7F0FD4046BDE8F84F01F038BF376013
:1081980023462A465969914209D8187994F804C0A7
:1081A800844588BF1C469B68521A002BF2D1404672
:1081B80001F025FFD4F81480C4F814A001F019FFC9
:1081C80083462046FFF710FE584601F018FF236942
:1081D8004BB101F00EFF216983462046FFF784FD6D
:1081E800584601F00CFFE36813B121682046984710
:1081F80000F058F84744ED1B0446054401F0F9FE29
:1082080027468046B2E7022000F088F8BAE7BDE8C2
:10821800F88F00BFA02A0020A82A0020982A002052
:1082280010B51C4B86B05968186803AA03C2197A9E
:1082380053F8090F117001909A8817489B79ADF887
:10824800082001218DF80A30002401F035FB03A82D
:108258008DF80C408DF8104002F050FC01A9012067
:108268008DF8044002F02AFC0C4A536A23F4FF6399
:1082780023F00703536240F2FF73136201209460F6
:1082880002F036FC064B4FF00052C3F880211A600A
:1082980006B010BDFC1A0300A00914000020044019
:1082A80000E100E0014B9868704700BF00200440DF
:1082B800114A9368516D9269520704D4CA1A022A66
:1082C80001D899420DD1C21A012A98BF981C0A4BAD
:1082D800B0F1FF3F28BF013058655A6A42F00402E6
:1082E8005A62064A137833B103490B6D43F002030F
:1082F8000B6500231370704700200440401B0020CA
:108308008207054A00F00103516A48BF43F004039D
:108318000B435362704700BF00200440830700F0FE
:10832800010209D5074B0121197007490B6D23F08C
:10833800030342F004020B6503494B6A23EA020374
:108348004B627047401B002000200440064B012868
:108358009B6904D0022805D1C3F38000704703F05D
:1083680001007047002070470020044010B501F05C
:1083780040FE094A93690446590703F0010003F0D7
:10838800070348BF40F002001362FFF7CFFE204604
:10839800BDE8104001F033BE00200440014801F060
:1083A800C1BB00BFA0091400044B1B6800EB800090
:1083B800A3EBE00080F30800704700BFB02A00205C
:1083C800174B402870B59C6824DD5028B4BF0123A2
:1083D80002231449144A154DDE00314403C982E8CA
:1083E8000300134A324492E80300012C85E8030095
:1083F80003D10B4A4AF6E8519160012B0CD0022BAD
:108408000CD0002002F052F8012C02D1044B0022BB
:108418009A6070BD0023DCE70120F3E70220F1E752
:1084280000300E40B82A0020F82A0020282B00200F
:10843800D02A0020FFF7C4BF044B4FF04042DA6255
:108448001A6B22F040421A63704700BF00300E409A
:108458002C48F0B5002203682B4D114654592CB115
:108468001E68AC18002E36D1234601210832302A66
:10847800F4D101B103602549254E0B68002214464A
:1084880095592DB11F68B518002F2BD12B46012403
:108498000832302AF4D104B10B6000681D4B026821
:1084A80042B3DA69007922F0FF020243DA611A6BFB
:1084B80042F0804209681A630A68164BF2B1DA6919
:1084C800097922F47F4242EA0122DA611A6B42F00A
:1084D80000421A63F0BD1E792779B74284BF23464C
:1084E8000121C3E71F7995F804C0BC453CBF2B4662
:1084F8000124CDE71A6B22F08042DBE71A6B22F0E9
:108508000042E6E7E82A0020F82A0020EC2A0020AA
:10851800282B002000300E4008490B6A0A6ADBB29B
:10852800D2B29342F9D1064A0520DB00B3FBF0F33F
:108538001068C31A03F3070040B2704700300E40BA
:10854800B42A002070B5144C226B616A0A4011D518
:10855800124B1B681E6836B100251D605D60FFF771
:10856800DBFF2946B0474FF00043E362BDE87040A7
:10857800FFF76EBF5300F9D5094B1B681C6834B16F
:1085880000221A605A60FFF7C7FF0121A047024B7B
:108598004FF08042DA62E9E700300E40EC2A002012
:1085A800E82A0020FFF7CEBF2D4B37B501221A70FD
:1085B800002130222B4826F0D9FD302200212A48FC
:1085C80026F0D4FD294A2A4B13602A492A4A136007
:1085D8000A684B6DC2F30742FF2A02D0DBB2FF2BB9
:1085E80001D19023192202EB8201244803EBD10127
:1085F8000160DB000521B3FBF1F31344204A01A815
:10860800136002F0AFFA9DF80530012B1BD1412011
:10861800FFF7CAFE1B4C1C49207139202160FFF767
:10862800C3FE05465020FFF7BFFE184A2073157396
:1086380091604820A160FFF7B7FE10751161FFF740
:108648006BFFFFF7BDFEFFF7F7FE114B0122C3F8E2
:1086580080211A60FFF7FCFE002003B030BD00BF88
:10866800AC2A0020F82A0020282B0020E82A002025
:10867800F02A0020B081E00FEC2A0020B02A002068
:10868800B42A0020B82A00203D840000D02A002007
:1086980000E100E038B141B1013AB2F5006F044899
:1086A80038BF00207047034870470148704700BF33
:1086B800037000F0027000F00D490E4A0B7810B5F7
:1086C8004BB9C2E90033C2E9023301240C7042F805
:1086D8002300002010BD002352F823100029F6D0F3
:1086E8008142F4D00133042BF6D10348F2E700BFEE
:1086F800682B0020582B0020027000F038B5044683
:108708000D4601F076FCA28892B222B92A6001F0E7
:1087180076FC064838BD6388142202FB03430833FD
:108728002B6001F06CFC0020F4E700BF0B7000F038
:1087380038B504460D4601F05CFCA3889BB223B90A
:108748002B6001F05CFC0C4838BD6388E18814227A
:1087580002FB034308332B6063885A1C92FBF1F336
:1087680001FB13239BB26380A388013B9BB2A380C8
:1087780001F045FC0020E7E70B7000F07FB501230E
:1087880080F82C3090F8323093B90C4A0368039281
:108798000022049002924A680192012200920A681B
:1087A800016980681C33FFF74DF907B05DF804FBD9
:1087B800012BEAD0002380F82C30F6E71590000052
:1087C8007FB5012380F82D3090F8323083B90268E4
:1087D80034320D4B03930023049002934B680193AA
:1087E800012300930B68C1684068FFF711F907E09F
:1087F800012B02D102682832EBE7002380F82D30E4
:1088080007B05DF804FB00BF15880000F7B5906A53
:1088180001A91446FFF772FF144B984220D0019B20
:1088280000251D619D6001F0E4FB019AD6680746AA
:1088380026B1D2E9002329462046B04701A9A06AFB
:10884800FFF776FFA06A83889BB263B101A9FFF79F
:1088580055FF01992046FFF7B3FF384601F0CFFBDB
:10886800012003B0F0BD84F82D30F6E70B7000F05E
:10887800427E30235343044A1A44437F03EBC20326
:108888009B001868C0B270471CA0104213B51D4A5F
:10889800002352F82340617F81420ED00133042B1C
:1088A800F7D102B010BD0028FBD19DF80730002B8E
:1088B800F7D06068FFF7E0F8F3E794F83130022B5F
:1088C800EFD12046FFF7D4FF637D2075022BE8D156
:1088D80094F82E3003F0FF02002BE2D102A9606861
:1088E80001F8012DFFF728F9237D1BB194F82F30EB
:1088F800002BD8D0002384F82F306068FFF7DCF80D
:10890800CFE700BF582B002090F8323053B90368E6
:108918000122DA601A69D007FCD55A6F42F00102C9
:108928005A677047012B0CD103685A6C9107FCD425
:1089380001225A609A68D207FCD55A6D42F00102AA
:108948005A65704790F832303BB903685A6F22F085
:1089580001025A670222DA607047012B09D10368C5
:108968005A6C9207FCD45A6D22F001025A65022211
:108978005A60704710B50446FFF714F80021201D0F
:10898800FEF79EFF014608B1044810BD04F1080037
:10899800FEF796FF0028F8D0F6E700BF0E7000F04B
:1089A800F8B5044617460D4601F023FBA388E28874
:1089B8009A42064605D800233B6001F020FB164882
:1089C800F8BD2388142202FB0343083305F1100C79
:1089D8002A4603CA624518605960154603F1080320
:1089E800F6D1106818602388E188142202FB03433B
:1089F80008333B6023885A1C92FBF1F301FB1323D5
:108A08009BB22380A38801339BB23046A38001F038
:108A1800F6FA0020D4E700BF0A7000F073B50446E8
:108A28000D46C07DE67E002934D00123042231465C
:108A380001F0C6FD01230222217F207E01F0C0FD46
:108A480094F83130022B16D100230122617F607E19
:108A580001F0B6FD00230422A07EA17F01F0B0FD45
:108A68000123627F607E01930093114601F05CFD53
:108A7800002002B070BD032BFAD100230122617FD0
:108A8800607E01F09DFD00230422A17FA07E01F0FD
:108A980097FDEDE70B460A46314601F091FD2B465E
:108AA8002A46217F207E01F08BFD94F83130022B7D
:108AB80010D12B462A46617F607E01F081FD2B464E
:108AC8002A46A07EA17F01F07BFD627F607E019532
:108AD8000123C9E7032BCBD12B462A46617F607E51
:108AE80001F06EFD2B462A46CFE790F8323013B9D5
:108AF800036818697047012B1CD103689B6803F051
:108B08000200DA0748BF40F00100590748BF40F0AB
:108B180008001A0748BF40F02000D90648BF40F0B7
:108B280040009A0648BF40F080005B0603D540F439
:108B380000507047002070472DE9F3410D46044668
:108B4800002879D001F055FA012D06463BD1A36AD9
:108B58009B889BB2002B3DD06068FEF7CDFF0023B9
:108B6800A06A84F82D3083889BB273B101A9FFF7FE
:108B7800C5FD01996068364F0831FFF705F8019B7C
:108B88001F61A06A83889BB253BB2046FFF7ADFFE5
:108B98008304FAD5023D012D10D8A068FEF7ACFF7A
:108BA8000023606A84F82C3083889BB23BBB94F81E
:108BB8003130032B02D02046FFF7C4FE304601F0C7
:108BC8001EFA002009E0022D38D1636A9B889BB207
:108BD800002BDFD101F013FA1E4802B0BDE8F08186
:108BE80001A9FFF7A5FD019BD3F80C80B8F1000F90
:108BF800C7D09B68002239462046C047C1E769466E
:108C0800FFF77CFD0099A068114F0831FEF7BCFF03
:108C1800009B1F61606A83889BB2002BC7D069469E
:108C2800FFF786FD009BDD68002DF3D09B680022CE
:108C380039462046A847EDE70748CEE7032DA9D1D6
:108C4800A36A9B889BB2002B86D1636A80E700BF2A
:108C5800097000F0087000F0027000F0436A98880C
:108C6800C0B270472DE9F3410546406A84889846AA
:108C7800A4B200230E461746CDE900333CB169463D
:108C8800FFF73CFD01A90446A868FEF77DFF00999F
:108C980071B16CB94868019BC01A3860C8F80030D7
:108CA8000B6833602846FFF720FF02B0BDE8F0816B
:108CB8000021C8F8001039603160F3E7836A9888AA
:108CC800C0B270472DE9F3410546806A848898460A
:108CD800A4B200230E461746CDE900333CB16946DD
:108CE800FFF70CFD01A904466868FEF74DFF0099DF
:108CF80071B16CB94868019BC01A3860C8F8003077
:108D08000B6833602846FFF7F0FE02B0BDE8F0813B
:108D18000021C8F8001039603160F3E7007D704722
:108D28002DE9F04104460E461746FFF7B3FC80468E
:108D380050BB082001F082F90546A26A93889BB2CD
:108D480013B194F82E3013B394F8322022BB236861
:108D58001D6915F0020533D0012384F83030002A4C
:108D68003FD13744BE42206836D103699E06FCD500
:108D780055B994F83230002B42D123685A6F22F04B
:108D880002025A670822DA604046BDE8F081002DE9
:108D9800D4D0FEF71BFFD0E7012A1BD123689D68BA
:108DA80015F00205D8D1596C8807FCD40421596004
:108DB80099688907FCD5596D41F002015965CBE7DF
:108DC8000421D96019698907FCD5596F41F002015E
:108DD8005967C1E70025BFE716F8011B02F000F844
:108DE800C0E7012AD0D13744B742206803D183684D
:108DF8001907FCD5BCE716F8011B01F01AFDF3E7CB
:108E0800012BC1D123685A6C9207FCD45A6D22F009
:108E180002025A6508225A60B6E7000010B50446F7
:108E2800B0B190F82E3033B990F83130022B0AD017
:108E38006068FEF721FE94F82E300133DBB284F827
:108E48002E30002010BDFFF713FD0028F3D1EFE707
:108E58000048F7E7027000F010B50446D0B190F86A
:108E68002E30CBB190F82E30012B06D190F831304E
:108E7800022B0AD06068FEF71FFE94F82E30013BE3
:108E8800DBB284F82E30002010BDFFF7F1FC00287B
:108E9800F3D1EFE70148F7E70148F5E7027000F082
:108EA800057000F037B590F83150022D044618D1FE
:108EB800A37F407D01229A40A37E30215943134B62
:108EC8000B4410B903F1806303E0012805D103F1D5
:108ED800C0631A60002003B030BD217D0029F6D19F
:108EE800F0E7012DF6D1037D73B911238DF8073012
:108EF800FFF794FF2A460DF107012046FFF710FF00
:108F08002046FFF7A9FFE5E71323EFE70CA0004091
:108F180090F83130032B05D00229417518BF01752F
:108F2800FFF7C0BF00487047057000F010B5044651
:108F380000283AD00321FFF7FFFD00212046FFF764
:108F4800E7FF00212046FFF769FD94F8323003BBA4
:108F580023680A22DA600021206A00F0ADFC94F848
:108F68003130032B03D00021607FFEF78BFE606851
:108F7800FEF7F2FCA068FEF7EFFCFEF7CDFC636A93
:108F88000020188058809880A36A1880588098809C
:108F980010BD012BDFD1206801F037FC23685A6C23
:108FA8009207FCD40A225A60D5E70148F0E700BFCF
:108FB800027000F0F0B587B004461646FFF76AFB6A
:108FC8000546F0B9CDE9011604936A460E4B606A6E
:108FD800039601A90593FFF7E3FC054688B994F8C1
:108FE8002C3073B92046FFF78FFC00992046FFF715
:108FF800C5FB94F83130032B03D025752046FFF7C5
:1090080051FF284607B0F0BD017000F073B5506AF3
:1090180001A91446FFF772FB334B98422FD094F8FE
:109028003200019B002836D12268116C11F40071BE
:1090380028D02E49196198604FF40073936400F0AA
:10904800D8FF0199CD68064635B14A688B68204635
:10905800D31A0A680969A84701A9606AFFF768FB7B
:10906800606A8588ADB2002D2FD001A9FFF746FBB5
:1090780001992046FFF782FB304600F0C0FF01202F
:1090880002B070BD106CC5051BD5194818619960F0
:109098004FF48073D2E7012813D12268D16A11F006
:1090A800800106D01149196100219960802353631A
:1090B800C5E7D06A400604D50D4818619960402379
:1090C800F5E700221A619A60B9E701232375204663
:1090D800FFF7E8FE94F8313084F82C50032BCBD0FE
:1090E8002046FFF72FFCC7E70B7000F00D7000F06B
:1090F8000C7000F02DE9F041094F04460D460FCFE2
:1091080088B001AE0FC697E8070086E80700002C74
:1091180000F0348245B9034E304608B0BDE8F0810E
:109128001C1B0300037000F038220021204626F0A3
:109138001DF82046FFF7C0FA06460028ECD12B7C24
:1091480084F83130C64A2B682360934284F8320091
:1091580040F07B81C34B2362C34BE3604FF4402351
:109168002361D5E906230026626216805680968020
:1091780084F82C60A3621E805E809E806B680393D7
:109188006B89ADF81430AB89ADF81230AB7B8DF834
:1091980010300121EB7BB54884F82D6084F82F60EE
:1091A80005278DF816308DF8117000F085FB012128
:1091B800AF4800F081FB0121206A00F07DFB01A986
:1091C80028688DF8046001F0CDFD28686A7A816FFF
:1091D8002B7ADFF88CC221F4F85121F01F011143DA
:1091E80041EA03218167032141672068604540F017
:1091F8004781BB4216D9981F042840F25D81A3F12C
:109208000B00B84240F25A81A3F11100062840F23F
:109218005781A3F11801062940F254811F2B14BF6E
:10922800FF263E46042AE67540F24E81511F042966
:1092380040F24C81A2F10A01052940F24981A2F1CC
:109248001001062940F24681A2F11701072940F2D0
:1092580043811F2A14BFFF2100212176002B58D0FB
:10926800012B56D0022B54D0032B52D0042B50D0B4
:10927800052B4ED0062B00F03981072B00F03881E2
:10928800082B00F03781092B00F036810A2B00F0FB
:1092980035810B2B00F040810C2B00F01F810D2B2A
:1092A80000F01E810E2B00F01D810F2B00F01C8199
:1092B800102B00F01B81112B00F01481122B00F0F1
:1092C8001381132B00F01281142B00F01181152B40
:1092D80000F01081162B00F00F81172B00F00E8183
:1092E800182B00F00D81192B00F00C811A2B00F0BF
:1092F8000B811B2B00F00A811C2B00F009811D2B10
:1093080000F008811E2B00F007811F2B0CBF0723DC
:10931800FF23E376002A00F01381012A00F012816E
:10932800022A00F01181032A00F01081042A00F0BB
:109338000F81052A00F0F880062A00F0F780072A36
:1093480000F0F680082A00F0F580092A00F0F48081
:109358000A2A00F0FF800B2A00F0FE800C2A00F099
:10936800DD800D2A00F0DC800E2A00F0DB800F2A59
:1093780000F0DA80102A00F0D380112A00F0D280A1
:10938800122A00F0D180132A00F0D080142A00F0AD
:10939800CF80152A00F0CE80162A00F0CD80172A3B
:1093A80000F0CC80182A00F0CB80192A00F0CA807F
:1093B8001A2A00F0C9801B2A00F0C8801C2A00F075
:1093C800C7801D2A00F0C6801E2A00F0C5801F2A0B
:1093D80014BFFF23002323776B7C6376AB7C637712
:1093E800EB7CA3762B7DA37701212046FFF716FBA4
:1093F800064600287FF490AE00F0FBFD2F7C032F7B
:10940800804640F0AB802B682A8CDA675A6E42F0AF
:1094180004025A665A6F42F030025A6728684FF0C1
:10942800FF3383642B7C032B0CBF0521042101F03F
:109438006FFC2B684FF44062DA602046FFF79AFA17
:109448000646404600F0DBFD66E60A4A93427FF492
:1094580062AE094B2362094BE3604FF450237FE669
:10946800000001400022040001000C0040410500FA
:1094780000250A00000401400032040001000D002C
:10948800DFF804C160457FF446AE052B7FF6CAAE0F
:10949800981F042810D9A3F10B0005280ED9A3F1B1
:1094A800110006280CD9A3F1180106290AD91F2B87
:1094B80014BFFF260526B5E60126B3E60226B1E667
:1094C8000E46AFE63E46ADE60021C6E60121C4E6FB
:1094D8000221C2E60321C0E60521BEE6072318E7FC
:1094E800082316E7092314E70A2312E70B2310E7DA
:1094F8000C230EE70D230CE70E230AE70F2308E7DA
:10950800002306E7012304E7022302E7032300E719
:109518000423FEE60523FCE60623FAE608235AE7B9
:10952800092358E70A2356E70B2354E70C2352E78D
:109538000D2350E70E234EE70F234CE700234AE79D
:10954800012348E7022346E7032344E7042342E7CD
:10955800052340E706233EE707233CE7022F7FF475
:109568005DAF607F0649FEF78DFBFEF77DFBA675B4
:10957800267567752046FFF795FC4FE7014ECBE54A
:1095880095880000027000F00004014090F8312036
:10959800012A10B5034610D102290ED0827D8A42D5
:1095A80001D1002010BD997511B9FFF755FCF8E7F6
:1095B8000129F6D1FFF732FCF3E70148F2E700BFD3
:1095C800057000F0F0B587B004461646FFF762F85C
:1095D800054600BBCDE9011604936A460F4BA06A05
:1095E800039601A90593FFF7DBF9054698B994F8A6
:1095F8002D3083B900F0FDFCA36A9B889BB2064618
:1096080033B100992046FFF7DBF8012384F83030A6
:10961800304600F0F4FC284607B0F0BD017000F0B9
:1096280070B588B00D220021294C2A4E04A825F0D7
:109638009DFD00250223012127488DF81010CDE952
:10964800015503958DF80A3000F036F9294601AA2C
:10965800204601F0F4FA4FF6FF73E3618DF81250DB
:10966800354604A9204601F097FA1C4800F05AFA3A
:109678009DF81230D8400133DBB20A2B30608DF8E8
:10968800123002D8164B9842EBD81648164C00F008
:1096980049FA1649B1FBF0F12868154A0025E1FBA3
:1096A800004500232046294625F08EFB114B084A29
:1096B8001860114B00201870936923F01003936110
:1096C8000E4B4FF48062C3F880211A6008B070BD59
:1096D800008001406C2B002000020400404105007E
:1096E80080841E007000020020A1070000B0710BEA
:1096F80040420F00702B0020742B002000E100E096
:109708001E4BF7B519681E4C1E4A1F4E0025E0FB7C
:10971800014520462946002325F056FBDFF86CC09A
:109728004FF6E85400254FF6E75E4FF0FF378D42BD
:1097380008BF844211D380B260B1144A516A89B219
:10974800536A9BB2ADF80630BDF806305B1A9BB27F
:109758009842F5D8002003B0F0BDDCF8242092B27E
:10976800DCF824309BB2ADF80430BDF804309B1A05
:109778009BB27345F4D980197941D8E76C2B002046
:1097880020A1070040420F001802FFFF008001409F
:10979800044BDA68D20604D510225A61024B012222
:1097A8001A70704700800140742B00200C4B9842BF
:1097B80010D90C4B984210D9022201230A490B6098
:1097C8000A49D1F8003123F0807343EA0263C1F8F3
:1097D8000031704700221346F0E70122FBE700BF83
:1097E8000048E8010090D0034000C84300400E4004
:1097F8000A490B4B88425A680BD90A4988420AD948
:1098080002F040715A6822F0407242EA01625A60DE
:1098180070470021F6E70121F4E700BF40787D0199
:1098280000000E40005A620238B5064C41F671330A
:10983800256C236401F04AFBFFF7DAFF0DB1002322
:10984800236438BD00000E40044BD3F84421D207EE
:1098580003D4D3F840211042FBD1704700400E409A
:109868000C4AD2F89030516A0B4B21F0300141F08C
:10987800100110B55162146BC0F3C31103310F29E5
:1098880003EA040328BF0F21034343EA0173136368
:1098980010BD00BF00400E4000F8FF0F38B5054C62
:1098A80041F67133256C2364FFF7A2FF0DB1002345
:1098B800236438BD00000E40C0F30322013A38B5D6
:1098C8000546092A13D8DFE802F0231312120516F9
:1098D80019121C20104C0020C5F3043508B1FFF7FD
:1098E800B3FF04F1047405EBC404A400216038BD7F
:1098F80000200A4CF0E70120094CEDE71020094C44
:10990800EAE74FF48030084CE6E70020074CE3E72D
:109918000020074CE0E700BFB0400E40C0400E40BA
:10992800E0400E40E8400E40F0400E4050410E40EE
:1099380000400E40C0F30313013B092B3FD8DFE87A
:1099480003F0050B0F193E3E1F232C351D4BD3F892
:109958000001C0F3042070471A4BD3F81401F8E74C
:10996800184BD3F80001C0F30060431C0120984055
:1099780001387047134BD3F80C01C0F30820704727
:10998800104BD3F80801F8E70F4B984217D10D4B4D
:10999800D3F8203103F00F03E8E70C4B98420ED1BF
:1099A800084BD3F8283103F00303DFE7084B98424C
:1099B80005D1044BD3F8300100F00F0070470020A8
:1099C800704700BF00400E408006160090071A003E
:1099D800A009140008B5FFF7ADFF013008BD00006D
:1099E80000F00F000138072848D8DFE800F0040F1E
:1099F8001947232D4735244BD3F8943003F0070338
:109A0800023B022B3CD8214AD05C70471E4BD3F84E
:109A1800803003F00703013B032B33D81C4AF3E7DC
:109A2800194BD3F8843003F00703013B032B29D8E3
:109A3800184AE9E7144BD3F8883003F00703013BD1
:109A4800032B1FD8144ADFE70F4B1B6F13F0010FCE
:109A580014BF0920072070470B4BD3F85C3103F083
:109A68003003202B06D0302B06D0102B0CBF07203C
:109A78000120704704207047082070470020704775
:109A8800052070470120704700400E40381B030036
:109A98003B1B03003F1B03003B1B030008B50146AB
:109AA800FFF79EFF1B4B994211D01B4B994212D0D6
:109AB8001A4B994204D11A4BD3F8800000F00700E2
:109AC8000138032824D8DFE800F00A0E1612144BD8
:109AD800D3F88400F2E7124BD3F88800EEE7BDE82C
:109AE800084001F069BABDE8084001F06BBABDE86A
:109AF800084001F064BA01F0EDF9094BD3F80031E0
:109B0800C3F300635A1C01239340B0FBF3F008BD74
:109B18000020FCE7030020000500240002001E00CE
:109B280000400E4000F47813B3F5A01F10B50446AA
